:020000040800F2
:10000000884F0020C55A0108095801080B580108FB
:100010000F58010813580108175801080000000084
:100020000000000000000000000000001B58010854
:100030001D580108000000001F5801082158010840
:10004000DF5A0108DF5A0108DF5A0108DF5A0108A8
:10005000DF5A0108DF5A0108DF5A0108DF5A010898
:10006000DF5A0108DF5A0108DF5A0108DF5A010888
:10007000DF5A0108DF5A0108DF5A0108DF5A010878
:10008000DF5A0108DF5A0108DF5A0108DF5A010868
:100090009DA60108DF5A0108DF5A0108DF5A01084E
:1000A000DF5A0108B3070008DF5A0108DF5A0108C8
:1000B000DF1C0008D5050008DF5A0108DF5A0108D7
:1000C000DF5A0108DF5A0108DF5A0108DF5A010828
:1000D000DF5A01081F140008E7A20108311B0008BD
:1000E000DF5A0108DF5A0108DF5A0108DF5A010808
:1000F000DF5A0108DF5A0108DF5A0108DF5A0108F8
:10010000DF5A0108DF5A0108DF5A0108DF5A0108E7
:10011000DF5A0108DF5A0108DF5A0108DF5A0108D7
:10012000DF5A0108DF5A0108DF5A0108DF5A0108C7
:10013000DFF80CD01BF09EFC00480047450100088A
:10014000884F002008B515F0DCFB14F0F5FC6420A6
:1001500014F02FFD15F054F8472140F2E73015F068
:10016000A3F84FF40071FA4815F039FE4FF4A0607F
:1001700015F0BAFCF74815F054FC14F0F9FD002016
:100180000CF02FFF242801D00DF056F91E200CF0A2
:1001900028FFF14908700846007858B9EF490988E6
:1001A000642201FB02F014F0A5FB1AF046F810F0EF
:1001B00002F905E0E8480078012801D115F0FFFABE
:1001C0001AF0CCF801201AF02CF91B200CF009FFD2
:1001D000E34908701C200CF004FFE249087014F099
:1001E000E0FE00204F239F220146009004F0B2FC65
:1001F000092014F006FE00B2DB4908800120DB492B
:100200000870DB49087008460078012804D14721AE
:100210004FF6FF7001F007FFD4480078012802D1A3
:10022000D44814F015FB40F2CF2140F2E73014F02F
:1002300003FC40F2CF2140F2E73014F04FFC0121E3
:10024000CD4817F04FF80121CC4817F04BF8192092
:100250000CF0C7FECA4908700A214FF4AF6015F0D0
:100260000FF80421002015F00BF80A214FF49660D6
:1002700015F006F80421002015F002F80A214FF4C9
:100280007A7014F0FDFF0DF03BFEBE4800780028A8
:100290004AD0BC480078012808D10020BA4908702B
:1002A0000120BA49B84A127888543DE0B548007830
:1002B000022808D10120B44908700320B349B24A8A
:1002C0001278885430E0AF480078032808D1012024
:1002D000AD4908700020AD49AB4A1278885423E03C
:1002E000A8480078042808D10120A74908700121F6
:1002F000A648A54A1278815416E0A248007805283D
:1003000008D10220A04908700020A0499E4A127816
:10031000885409E09B480078062805D101209C49B3
:10032000087000209B49087011E106F0B8FA06F049
:10033000FAF89748007800287ED19348007830B1C9
:10034000012823D0022844D0032874D156E08F48D6
:100350008D490978405C062816D2DFE800F00306D4
:10036000090C0F1204F0EBFD0EE005F0A4F80BE011
:1003700005F06FFA08E005F004FC05E005F0F6FD75
:1003800002E005F04BFF00BF00BF54E07F487E490C
:100390000978405C07281AD2DFE800F004070A0D4C
:1003A0001013160012F00AFB11E012F057FC0EE0D9
:1003B00014F04BF90BE006F0C9FA08E006F077FDFF
:1003C00005E006F0F6FE02E007F0C0F800BF00BF4F
:1003D00031E06E486C490978405C20B1012805D0B5
:1003E000022809D105E007F041FA05E007F0FFFA1D
:1003F00002E007F0BDFB00BF00BF1CE0634862499C
:100400000978405C052814D2DFE800F003060A0DE5
:1004100010000FF0E9FF0CE010F005F909E00BE027
:1004200010F062FA05E010F044FB02E010F075FCF9
:1004300000BF00BF00BF28E004F0A6FC55480078CC
:10044000092821D2DFE800F005080B0E1114171A55
:100450001D0007F05DFF17E00EF096FE14E001F0BE
:10046000DEFF11E00BF074F80EE002F024FD0BE06B
:100470000CF074F908E009F07EFA05E00AF04CFB94
:1004800002E00DF071FC00BF00BF0DF0B7FD03F0FE
:1004900029F841480078401C3F4908703F480078DF
:1004A00088B13F48007850B914213EA00DF052FCAD
:1004B0002E4800783E49087002202C4908700A2016
:1004C0003749087014E03648007828B1344800787D
:1004D000401E334908700BE024480078022807D1F9
:1004E0003348007821490870142132A00DF032FC05
:1004F0003348007850B10020314908703148007805
:1005000020B11548007808B918F017FF2E48007878
:1005100078B100202C4908702A48007848B12B484F
:10052000007830B10C48007818B90FF0FEFE0FF0DB
:100530001AFF2748007850B100202549087021484B
:10054000007820B12148007808B10FF02DFFECE6CB
:10055000000C0140A0860100620000206400002021
:10056000600000206100002078010020660000206B
:10057000EE010020801A060000040040002C01401B
:100580004100002036020020530000204F000020D0
:1005900054000020550000204D000020630300207F
:1005A0003F000020555342D2D1C1ACBDD300000062
:1005B00040000020555342D2D1B6CFBFAA00000060
:1005C0000700002054010020050000204D010020FC
:1005D0000400002010B50121994817F04CF90028BB
:1005E0007ED00121964817F057F9012095490870EF
:1005F0009549087014F0E4FE94480078401C934933
:10060000087008460078052190FBF1F201FB12000A
:10061000002871D101208E4908708E49087000F0C1
:100620003AFC8D48007820B18B480078401E8A49FA
:1006300008700DF019FD10F098FB8848007801282B
:100640005AD187480078012856D13B2015F086F80A
:10065000B42100FB01F4E01704EB5040C01300B2DA
:10066000804908803D2015F079F8B42100FB01F4A1
:10067000E01704EB5040C01300B27B4908803F20D4
:1006800015F06CF8B42100FB01F4E01704EB5040C6
:10069000C01300B2754908800846B0F90000002870
:1006A00015DA7048B0F90000002808DB6D48B0F991
:1006B0000000C0F1B40000B26A49088007E0694850
:1006C00000886FF0B301081A00B2664908806548D7
:1006D000008830B96448008818B96448008801E08F
:1006E00066E009E040B900205D490870142160A06F
:1006F0000DF030FB14F0A4FE544800780A2190FB62
:10070000F1F201FB120048B901205D4908705D4912
:1007100008705D480068401C5B4908604B480078E1
:10072000642845D100204949087058480078584944
:10073000087000205549087056480068401C55490B
:1007400008600120544908705449087054480078E2
:1007500040B15448007828B151480078401E5049B3
:10076000087007E04F48007820B14FF400714E4800
:1007700015F035FB4D48007820B14C480078401EFC
:100780004A4908704A48007820B149480078401E1C
:1007900047490870002408E04648005D464908556E
:1007A000002044490855601CC4B20F2CF4DB00BF84
:1007B00010BD10B50121414817F05DF800283ED06A
:1007C00001213E4817F068F83D480078401C3C493C
:1007D000087000F034FA0AF0D5FB0BF061FB02F070
:1007E0002FF938480078012802D0022806D102E00B
:1007F00000F0F8FE03E004F07DFA00E000BF00BF67
:100800003148007820B131480068C01C2F49086089
:100810002F48007820B12F480068C01C2D4908607F
:100820002D48007820B12D480068C01C2B49086075
:1008300023480078642802D100202149087010BDA7
:1008400000040040070000200300002008000020F2
:100850000600002002000020AE02002062000020FE
:10086000490100204E0100205001002052010020CB
:100870004D707536303530D2D1B6CFBFAA000000EA
:1008800005000020010000202C0000204D00002069
:100890004C0000200C00002000000020040000207C
:1008A000380000203A000020000C01402801002000
:1008B0004C010020B7040020A8040020002C0140B7
:1008C000090000206600002018000020140000200D
:1008D000200000201C000020280000202400002010
:1008E0000146002901DB084670474842FCE72DE934
:1008F000FC5F092014F085FAF84909680844F749B3
:100900000860F7480078401CF549087008460078F0
:1009100014287DDBF14800681421B0FBF1F004B22B
:10092000F049B1F90010601A002801DB014600E02F
:1009300041420FFA81F9B9F1140F20DA20461AF07A
:10094000BFFD0546E84AE94B1AF0CBFC074688464E
:10095000E448B0F900001AF0B3FD0546E44AE54B5F
:100960001AF0BFFC82463A4643461AF013FCCDE922
:1009700000011AF0F0FD00B2DA49088044E0B9F154
:10098000640F21DA20461AF09BFD0546DA4ADB4B5C
:100990001AF0A7FC07468846D248B0F900001AF0C2
:1009A0008FFD05464FF06632D54B1AF09AFC824611
:1009B0003A4643461AF0EEFBCDE900011AF0CBFDB2
:1009C00000B2C84908801FE020461AF079FD0546AC
:1009D000C94ACC4B1AF085FC07468846C148B0F995
:1009E00000001AF06DFD0546C74AC84B1AF079FCA5
:1009F00082463A4643461AF0CDFBCDE900011AF093
:100A0000AAFD00B2B74908800020B549087000E08F
:100A100015E0B2490860B349B1F90010BC4AB2F917
:100A2000002001FB02F01AF04BFD07460022B94BF3
:100A30001AF0C9FC05461AF0ADFDB7490880BDE8BB
:100A4000FC9F2DE9FF470024B2E0B449085D14F093
:100A5000D8F905B2B24931F81410681A002801DB40
:100A6000014600E041420EB20A2E20DA28461AF072
:100A700027FD0746A04AA34B1AF033FCCDE902013B
:100A8000A74931F814001AF02CFD07469E4A9F4BE7
:100A90001AF027FCCDE90001DDE902231AF07AFB08
:100AA00081461AF077FD9E4921F8140028E0142EA3
:100AB00023DA28461AF004FD07464FF03332994BEB
:100AC0001AF00FFC81468A46954931F814001AF055
:100AD00008FD07464FF06632934B1AF002FC4A4677
:100AE0005346CDE900011AF055FBCDE902011AF099
:100AF00051FD8B4921F8140002E0894921F8145076
:100B00008A4830F81400864931F81410884206DC0F
:100B1000834830F81400854921F814000DE084481A
:100B200030F814007E4931F81410884205DB7C4807
:100B300030F814007E4921F81400794830F8140088
:100B40007C4931F81410884218DA754830F81400DE
:100B5000774931F81410401A4FF4FA714843754937
:100B600031F81410724A32F81420891A90FBF1F00F
:100B700000F57A70704921F8140017E0684830F8E1
:100B800014006C4931F81410401A4FF4FA714843BC
:100B9000664931F81410674A32F81420891A90FB1C
:100BA000F1F000F2DC50644921F81400601CC4B27A
:100BB000062CFFF64AAF6148006808B9012000E042
:100BC000002000EB4001C1EBC0104FF47A7101EB43
:100BD000C000594988815A48006808B9012000E0DE
:100BE000002000EB4001C1EBC0104FF47A7101EB23
:100BF000C0005149C8815248001F006808B901204F
:100C000000E0002000EB4001C1EBC0104FF47A710E
:100C100001EBC0004849088249480838006808B913
:100C2000012000E0002000EB4001C1EBC0104FF4B8
:100C30007A7101EBC00040494882BDE8FF8710B5DA
:100C400088B0FFF7FEFE0024E3E03E48005D0A287E
:100C50000FDA3D48007838B13A48005D364931F83E
:100C600010002DF814007DE040F2DC502DF8140047
:100C700078E03448005D122815DA3248005D0A3801
:100C8000324931F81000B0F5FA7F07DB2D48005DDE
:100C90000A3831F810002DF8140063E040F2DC50FF
:100CA0002DF814005EE02748005D222852DA25481E
:100CB000005D1238264931F81000B0F5FA7F07DBE5
:100CC0002048005D123831F810002DF8140049E07A
:100CD00040F2DC502DF8140044E000007C010020BC
:100CE00080010020780100207B14AE47E17A943F18
:100CF0005C8FC2F5285CEF3F9A9999999999A93F21
:100D00006666EE3F9999B93FCDCCCCCCCCCCEC3FCC
:100D100042000020000059401000002054DF01086C
:100D2000180400203333D33F6666E63F6801002095
:100D30000804002058010020F4030020088121420B
:100D40003C012242670000203C000020C604002035
:100D500042040020FE48005D2A2803DA40F2DC50FD
:100D60002DF814003DF8140040F2DC51884227DCD5
:100D7000F84830F9140000F5FA70F74931F9141009
:100D8000401A3DF81410A1F57A7148434FF4FA71F6
:100D900090FBF1F000F57A70EF4931F91410084436
:100DA000EE49095D4900C1F101014843EB49095D84
:100DB00040F6B83202FB0100E94921F8140026E0B0
:100DC000E84830F9140000F5FA70E24931F91410DE
:100DD000401A3DF81410A1F2DC5148434FF4FA7167
:100DE00090FBF1F000F2DC50DA4931F914100844BC
:100DF000DA49095D4900C1F101014843D749095D5C
:100E000040F6B83202FB0100D54921F81400601CFD
:100E1000C4B2102CFFF619AFFFF769FD08B010BD82
:100E2000014609B900207047102905DC481ECC4A4C
:100E300032F8100000B2F6E7182906DCA1F1110023
:100E4000C94A32F8100000B2EDE7202906DCA1F112
:100E50001900C64A32F8100000B2E4E7302906DC77
:100E6000A1F12100C24A32F8100000B2DBE70020F5
:100E7000D9E700B5BF48007808B9002000BDBD48DB
:100E80000078FFF7CDFF40F2D661884201DD0120F6
:100E9000F4E70020F2E710B5B748006820BBB74878
:100EA00000780A2804DCB5480078401CB349087073
:100EB000B348007838B90120B249087002214FF4D4
:100EC0007A7014F037FA0120AD490870AB48007809
:100ED0000A2808DBAB480078142804DAA94800780F
:100EE000401DA8490870A7E0A3480C38006820BB43
:100EF000A24800780A2804DCA0480078401C9F49DA
:100F000008709F48007838B901209F490870022175
:100F10004FF47A7014F00EFA01209949087097483E
:100F200000780A28DFDB984800781428DBDA964836
:100F30000078401D944908707EE08F4808380068AA
:100F400020BB8E4800780A2804DC8C480078401CBE
:100F50008A4908708A48007838B901208B4908709E
:100F600002214FF47A7014F0E5F9012084490870E9
:100F7000824800780A285FDB8448007814285BDA0E
:100F800082480078401D8149087055E0804800681B
:100F900020BB7A4800780A2804DC78480078401C96
:100FA000764908707648007838B901207949087088
:100FB00002214FF47A7014F0BDF9012070490870D5
:100FC0006E4800780A2837DB72480078142833DA34
:100FD00070480078401D6F4908702DE00020684976
:100FE00008706648007840B16B4800786B4908701B
:100FF0004FF400716A4814F0F4FE00205F49087055
:10100000604800780A2802D000205E4908705E48D7
:1010100000780A2802D000205B4908705B480078FD
:101020000A2802D00020594908705A4800780A2836
:1010300002D00020574908704F481830006820BB84
:10104000584800780A2804DC56480078401C554966
:1010500008705548007838B90120544908700221B9
:101060004FF47A7014F066F901204F4908704D482A
:1010700000780A2856DB4D480078142852DA4B488D
:101080000078401D494908704CE03B48001F00684B
:1010900020BB444800780A2804DC42480078401C01
:1010A000404908704048007838B90120404908702C
:1010B00002214FF47A7014F03DF901203A4908708A
:1010C000384800780A282DDB39480078142829DAB6
:1010D00037480078401D3649087023E031480078D1
:1010E00040B12D4800782D4908704FF400712C480C
:1010F00014F077FE00202B4908702B4908702C480B
:10110000007818B12A4800782A49087027480078E2
:1011100018B1264800782849087000202349087033
:10112000234908702548007880B118490878194982
:101130000978164A1170174908701249087812493F
:101140000978104A11701049087039E039E0000040
:1011500067000020C403002078000020E403002082
:10116000B800002098000020F4030020C6040020EE
:1011700042040020850100201881214283010020C3
:10118000810100204400002045000020460000208E
:101190003C01214247000020390000203800002097
:1011A000000C014084010020820100204800002042
:1011B000490000204B0000204A0000206000002071
:1011C00000BF10BD10B586B004460121880416F09A
:1011D000C0FF0121082016F0AFFF4FF48060ADF88A
:1011E000140003208DF8160018208DF8170005A9AB
:1011F000A24814F047FD27208DF8000001208DF84B
:10120000010000208DF8020001208DF803006846DF
:1012100014F06FFC01944FF48050ADF808004000CA
:10122000ADF80A00C010ADF80C000020ADF81000B9
:101230000820ADF80E0001A9914815F03AF80121F7
:101240008F4815F0C2F806B010BD2DE9F04188B006
:101250008C4840788B49897840EA0120C0F30A0025
:10126000ADF8000087488078C0108649C97840EA08
:101270004110C0F30A00ADF802008248C078801126
:101280008049097940EA81007E49497940EA812014
:10129000C0F30A00ADF804007A484079401079495B
:1012A000897940EAC110C0F30A00ADF8060075481C
:1012B000807900117349C97940EA0110C0F30A002E
:1012C000ADF808006F48C079C0116E49097A40EA4C
:1012D00041006C49497A40EA4120C0F30A00ADF868
:1012E0000A006848407A80106649897A40EA81108D
:1012F000C0F30A00ADF80C006248807A40116149E1
:10130000C97A40EAC100ADF80E005E48007B5D4935
:10131000497B40EA0120C0F30A00ADF810005948AB
:10132000407BC0105749897B40EA4110C0F30A0056
:10133000ADF812005348807B80115249C97B40EAC6
:1013400081005049097C40EA8120C0F30A00ADF8D1
:1013500014004C48007C40104A49497C40EAC110C6
:10136000C0F30A00ADF816004648407C001145491C
:10137000897C40EA0110C0F30A00ADF8180041482A
:10138000807CC0113F49C97C40EA41003D49097D4C
:1013900040EA4120C0F30A00ADF81A003948007D48
:1013A00080103849497D40EA8110C0F30A00ADF849
:1013B0001C003448407D40113249897D40EAC1001B
:1013C000ADF81E00002425E03DF8141001F5B060D2
:1013D0001AF076F807462C4A2C4B19F0F4FF054614
:1013E0001AF0D8F880B22DF814003DF81400B0F5CA
:1013F000FA7F0DDB3DF8140040F6C411884207DC8B
:101400003DF81400224921F81400052021490870F4
:10141000601CC4B2102CD7DB08B0BDE8F08110B559
:1014200040F225511C4815F0C1F828B31A4815F0B0
:101430003DF8C4B21948007890B1124817490978AC
:10144000445416480078182805DA14480078401CDF
:101450001249087004E0002010490870FFF7F5FEFB
:101460000E48007840B90F2C06D106480B49097880
:10147000445401200949087010BD0000000C0140CF
:1014800000480040620400209A9999999999F93F7F
:10149000420400208701002000380140860100201E
:1014A00010B50246002004E012F8013B4340FE4C18
:1014B000E05C0B1EA1F10101F6D110BD2DE9F04752
:1014C00094B00025AA460026F84CEE2004F8010B43
:1014D000182004F8010BA146162004F8010B00BFE8
:1014E00018E0F34931F8150019F0FBFFF14AF24B0F
:1014F000CDE9000119F0F5FE07460022EF4B19F087
:10150000EAFECDE902011AF045F804A941F82500E8
:10151000681CC5B2102DE4DB002514E004A850F8C7
:101520002500B04040EA0A0A06F10B00C6B206E008
:1015300004F801AB4FEA1A2AA6F10800C6B2082E39
:10154000F6DA681CC5B2102DE8DB17214846FFF714
:10155000A7FF04F8010B14B0BDE8F08770B505468D
:101560000E4600240120D6490860D649087000BF05
:101570004021D54815F004F80128F9D100240CE0E9
:10158000295DD14814F08EFF00BF4021CE4814F0F1
:10159000F7FF0128F9D1601CC4B2B442F0DB00208F
:1015A000C8490870C649086070BD70B504460D464C
:1015B000EE20C6490870062048702D208870EE2065
:1015C000C870EA200871084644718571861C05219F
:1015D0003046FFF765FFB11EC8710821B01EFFF746
:1015E000BDFF70BD10B5BA480078002845D0B84896
:1015F0000078012805D1B74801780120FFF7D5FF11
:1016000037E0B3480078022805D1B24801780220BB
:10161000FFF7CBFF2DE0AE480078032805D1AD4899
:1016200001780620FFF7C1FF23E0A94800780428CD
:1016300005D1A84801780420FFF7B7FF19E0A448B6
:101640000078052804D10121FF20FFF7AEFF10E04C
:101650009F480078062804D101211120FFF7A5FF3B
:1016600007E09B480078072803D10121FE20FFF7FF
:101670009CFF00209649087005E0FFF71FFF1A2124
:101680008A48FFF76BFF10BD0020934908809349FB
:1016900008809349088093490880934908809349BA
:1016A00008809349087093490870934908609349EA
:1016B00008609349088093490880934908809349BA
:1016C00008709349088093490880934908709349AA
:1016D00008709349087093490870934908709349BA
:1016E00008709349087093490870934908709349AA
:1016F00008709349087093490870934908707047BF
:1017000000B592484078411E9048801CFFF7C8FE03
:101710008E494978491C8D4A515C88426FD11146E7
:1017200088781C286CD00CDC08286AD004DC0228DD
:1017300068D0072867D184E1092875D01428F9D129
:1017400008E01D2871D01E2870D021286FD03A28BB
:10175000F0D1C8E17D4949797A4A11707B49C97A4B
:10176000794A117079494979724A11707749C97A71
:10177000714A11707549C9786C4A11707349897A38
:101780006B4A11707149497A012902D16C4A117072
:101790001DE06E49497A022902D1694A117016E0AA
:1017A0006A49497A082903D10321654A11700EE07C
:1017B0006649497A032903D10421614A117006E080
:1017C0006249497A072902D105215D4A11705F49B2
:1017D000097A0C2903D10221584A117046E05B496D
:1017E000097A0B2903D10321544A11703EE057496D
:1017F000097A0A2908D10421504A117036E096E18D
:101800005BE1ADE0D8E08FE15049097A092903D1C5
:1018100005214A4A117029E04C49097A082907D163
:101820000621464A117021E018E14FE122E0BBE0B9
:101830004649097A072902D1404A117016E0434906
:10184000097A052903D108213C4A11700EE03F496D
:10185000097A042903D10921384A117006E03B496D
:10186000097A022902D10A21344A11700221384A28
:1018700011705AE135490979344AD27841EA022196
:1018800009B2154A118031498979304A527941EAC1
:10189000022109B2114A11802C49097A2B4AD279C6
:1018A00041EA022109B255E05ADF0108880100200F
:1018B000D80000209A9999999999F93F000096408B
:1018C0009C812142A201002000480040A301002089
:1018D000AB010020AC010020B0010020B2010020CB
:1018E000B4010020B6010020B8010020BA01002098
:1018F000BC010020BD010020C0010020C401002067
:10190000C8010020CA010020CC010020CE01002027
:10191000D0010020D2010020D4010020D5010020F8
:10192000D6010020D7010020D8010020D9010020D5
:10193000DA010020DB010020DC010020DD010020B5
:10194000DE0100204A0100204B0100207B04002022
:1019500028010020B34A11800221B34A1170E4E04B
:10196000B2490979B14AD27841EA0221B04A1180DC
:10197000AE498979AD4A527941EA0221AD4A1180D6
:10198000AA49C9790904A94A127A41EA0221A74A57
:10199000527A1143A84A1180A449897AA74A117042
:1019A0000221A14A1170C0E0A049C978A44A11706F
:1019B00002219D4A1170B8E09C49C97809069B4AEA
:1019C000127941EA0241994A527941EA0221974A41
:1019D000927911439B4A11609449C9790906934A47
:1019E000127A41EA0241914A527A41EA02218F4A2F
:1019F000927A1143944A11608C49097B8B4AD27ABE
:101A000041EA022109B2914A11808849897B874ABB
:101A1000527B41EA022109B28D4A11808349097C37
:101A2000824AD27B41EA0221A1F57A7109B2894A40
:101A300011807E49497C884A117002217A4A1170CE
:101A400073E07A490979794AD27841EA022109B2E8
:101A5000824A11800221744A117066E07349097943
:101A6000724AD27841EA022109B27D4A11801146B8
:101A7000098801F4004169B11146098821F4004147
:101A800009B21180114609886422514309B2744A8F
:101A900011800EE072490988A1F51C51103909B274
:101AA0006F4A11801146098801EB8101490009B292
:101AB000118002215C4A117037E05C490979694A5A
:101AC00011705A49C979684A11702EE0574909794D
:101AD000664A11705549C979654A11705349097AA6
:101AE000644A117021E05149897909064F4AD27937
:101AF00041EA02414D4A127A41EA02214B4A527AA6
:101B000011435D4A11604949897A0906474AD27AE8
:101B100041EA0241454A127B41EA0221434A527B93
:101B20001143564A116000E000BF00BF00BF00BD76
:101B300010B540F22551524814F038FD00286FD0FE
:101B40004F4814F0B3FCC4B24E480078002864D16A
:101B50004D480078032817D14C4801880088401C64
:101B60004A4A108031484454104601884848007859
:101B7000801C814240D10020434908700320454920
:101B80000870FFF7BDFD37E03F480078022822D1FA
:101B900000203E490A880988491C3C4B198023498A
:101BA0008C5400BF0EE03C49095CA14208D13B497E
:101BB000095C491C394A11540321334A117003E06E
:101BC000411CC8B20F28EEDB00BF0F2802DB00214A
:101BD0002D4A117010E02C48007801280CD12B48B8
:101BE00001880088401C294A108010484454022073
:101BF0002549087026480470EA2C11D10020234999
:101C00000880084601880088401C204A1080074848
:101C1000445401201C49087002E000201A49087051
:101C200010BD0000B4010020280100207B0400202A
:101C3000B6010020B8010020BA010020BC0100203C
:101C4000BD010020C0010020C4010020C801002007
:101C5000CA010020CC010020CE010020D0010020CC
:101C6000D2010020D4010020D5010020D60100209F
:101C7000D7010020D8010020E0010020E40100206D
:101C800000480040A2010020EA010020E8010020F5
:101C9000EC010020EB0100205AE00108B70400200D
:101CA00008B50121082016F047FA4FF48060ADF81E
:101CB000000010208DF8030003208DF80200694613
:101CC000FE4813F0DFFF0121880715F00BFB08BD6C
:101CD00010B500214FF0804015F004FB10BD10B589
:101CE000F7480078002871D10121880715F0C3FD5D
:101CF00000286CD0F3480078401CF2490870084670
:101D00000078132871D2DFE800F0700A17273444F6
:101D1000516371818E9EABBBC8D8E5F7F5000120F9
:101D2000E94908604FF4C87081068885E749098849
:101D30000844E6490880FDE00020E3490860E448E3
:101D40000088A0F5C87080B2C9068885DF49098877
:101D50000844DE490880EDE00120DB4908604FF4CB
:101D6000C87081068885D94909880844D749088000
:101D7000E0E00020D4490860D5484088A0F5C8704C
:101D800080B2C9068885D14909880844CF490880AE
:101D9000D0E00120CC4908604FF4C87081068885E6
:101DA000CA4909880844C9490880C3E00020C649D7
:101DB0000860C7488088A0F5C87080B2C9068885C9
:101DC000C24909880844C1490880B3E0B8E029E164
:101DD0000120BD4908604FF4C87081068885BB4961
:101DE00009880844B9490880A4E0A2E00020B64967
:101DF0000860B748C088A0F5C87080B2C906888559
:101E0000B24909880844B149088093E00120AE49ED
:101E100008604FF4C87081068885AC490988084479
:101E2000AA49088086E00020A7490860A8480089E0
:101E3000A0F5C87080B2C9068885A44909880844FD
:101E4000A249088076E001209F4908604FF4C870DD
:101E5000810688859D49098808449C49088069E075
:101E60000020994908609A484089A0F5C87080B25E
:101E7000C90688859549098808449449088059E02D
:101E80000120914908604FF4C870810688858F4908
:101E9000098808448D4908804CE000208A49086080
:101EA0008B488089A0F5C87080B2C90688858749AB
:101EB00009880844854908803CE00120824908607F
:101EC0004FF4C870810688858049098808447F4995
:101ED00008802FE000207C4908607D48C089A0F57B
:101EE000C87080B2C906888578490988084477494E
:101EF00008801FE00DE0FFE70120734908604FF400
:101F0000C870810688857149098808446F4908802E
:101F100010E000206C4908606C48008844F620619D
:101F2000081A4906888500206849088065490870B4
:101F300000E000BF00BF0121880715F0ADFC71E093
:101F40000121880715F097FC88B10021614A1170C2
:101F50006149097851B9002006E040F2DC515F4A3E
:101F600022F81010411CC8B20828F6DB00BF02217D
:101F7000480715F080FC80B35648007870B34FF0E6
:101F8000804015F059FC0446B4F5FA7F2EDD40F68A
:101F9000C41084422ADA601C81B24E480078401E88
:101FA0004E4A22F810104B480078401E114631F876
:101FB0001000B0F57A7F06DA4FF47A714548007860
:101FC000401E22F8101043480078082807DA4148DC
:101FD0000078401C3F49087004E01EE00AE0002041
:101FE0003C49087005203C49087002E0002039494E
:101FF000087000BF3748007850B94FF0804015F0A6
:102000001BFC40F6B831884202DD012031490870DE
:1020100000214FF0804015F0F9FB03214FF0804084
:1020200015F03AFC10BD30B589B005460C460121CB
:10203000084616F08EF80121042016F07DF80120E4
:10204000ADF8140028208DF8170005A9244813F0D6
:1020500019FE0121224813F0C4FEADF80C50ADF872
:1020600008400020ADF80E00ADF80A0002A94FF0BC
:10207000804014F0DBFD0020ADF81800ADF81A0028
:102080000120ADF81C000020ADF81E00ADF82000C6
:1020900006A94FF0804015F05CF81C208DF8040074
:1020A00000208DF805008DF8060001208DF807004E
:1020B00001A813F01EFD0122032113E0000C0140D2
:1020C000EE010020F4010020A8812142F20100204D
:1020D000D8000020EF010020F0010020C6040020FD
:1020E00000080140900715F018F90121880715F044
:1020F000F9F809B030BD00002DE9F04786B004467C
:10210000FE480778FE4890F80080FE48007820449A
:10211000C5B24FF00109FC480078A8420FD1FB4836
:10212000007828B9FA480778F54890F8008004E06C
:10213000F3480778F14890F800804FF00009092D26
:1021400047DAF448007808B9384601E0EB480078EF
:10215000F049097809B9414601E0E9490978ED4AB1
:1021600012780AB94A4600E001220C23CDE9013277
:10217000CDE90310E8A0009004EB4400202202EB1C
:1021800080011822002002F0EDF8E248007808B93A
:10219000384601E0D9480078DE49097809B9414656
:1021A00001E0D7490978DB4A12780AB94A4600E0CB
:1021B00001220C23CDE90032CDE902106A1C04EBA8
:1021C0004400202303EB80010123122001F0B8FE1C
:1021D00046E0D048007808B9384601E0C7480078A2
:1021E000CC49097809B9414601E0C5490978C94A8D
:1021F00012780AB94A4600E001220C23CDE90132E7
:10220000CDE90310C5A0009004EB4400202202EBAE
:1022100080011822002002F0A5F8BE48007808B915
:10222000394601E0B5480178BA48007808B9404617
:1022300001E0B3480078B74A12780AB94A4600E08C
:1022400001220C23CDE90032CDE902016A1C04EB26
:102250004400202303EB800102230C2001F070FED8
:10226000AC480078012801D1384601E0A348007845
:10227000A8490978012901D1414601E0A04909781E
:10228000A44A1278012A01D14A4600E001220C2317
:10229000CDE90132CDE90310A148405D00EB80009B
:1022A000A0490844009004EB4400202202EB800186
:1022B00018221B2002F056F896480078022801D117
:1022C000384601E08D48007892490978022901D109
:1022D000414601E08A4909788E4A1278022A01D1E2
:1022E0004A4600E001220C23CDE90032CDE902107C
:1022F0008D4830F9152004EB4400202303EB8001C6
:102300000323362001F01CFE884931F9150001F045
:1023100077F88246854931F9150001F071F800EB34
:102320004000C0F15D0086B27A480078032801D1F0
:10233000384601E07148007876490978032901D1CF
:10234000414601E06E490978724A1278032A01D1A8
:102350004A4600E001220C23CDE90032CDE902100B
:10236000724830F9152004EB4400202303EB800170
:102370005346304601F0E4FD66480078042801D158
:10238000384601E05D48007862490978042901D1A6
:10239000414601E05A4909785E4A1278042A01D17F
:1023A0004A4600E001220C23CDE90032CDE90210BB
:1023B0005F4830F9152004EB4400202303EB800133
:1023C00003236C2001F0BCFD52480078052801D1A0
:1023D000394601E0494801784E480078052801D186
:1023E000404601E0464800784A4A1278052A01D161
:1023F0004A4600E001220C23CDE90032CDE902017A
:102400004C4830F8152004EB4400202303EB8001F6
:102410000423872001F094FD06B0BDE8F08710B5D5
:1024200086B0454800783649097801220C23CDE969
:102430000132CDE9031041A0402204210090382050
:1024400001F090FF2D4800783B49097801220C23C8
:10245000CDE90132CDE903103BA0182214210090F0
:10246000002001F07FFF25480078334909780122D8
:102470000C23CDE90132CDE9031031A0182214213B
:1024800000901B2001F06EFF1C4800782A49097853
:1024900001220C23CDE90132CDE903102CA0182232
:1024A00014210090362001F05DFF14480078224985
:1024B000097801220C23CDE90132CDE9031026A0D1
:1024C000182214210090512001F04CFF0B48007895
:1024D0001949097801220C23CDE90132CDE9031015
:1024E0001FA01822142100906C2001F03BFF03482C
:1024F00000781149097801220C2335E058000020AA
:1025000057000020F5010020F6010020F90100200D
:102510005A000020F70100204348300043480000E3
:102520006700002069E0010878000020C403002053
:1025300098000020B800002059000020D0C5BAC57E
:10254000CAE4C8EB00000000CDA8B5C00000000040
:10255000B5CDCEBB00000000D6D0CEBB0000000041
:10256000B8DFCEBB00000000CDE90132CDE9031099
:10257000FEA0182214210090872001F0F3FEFD48F0
:10258000007801280CD10020FA4908700420FA498B
:1025900008700020F9490870F9490870F949087075
:1025A000002404E02046FFF7A7FD601CC4B2F248F7
:1025B00000788442F6DBF448007870B10020F249DC
:1025C0000870EF48007828B1ED480078401EEC49CB
:1025D000087002E00520EA490870EC48007878B1FC
:1025E0000020EA490870E6480078052805DAE44842
:1025F0000078401CE249087002E00020E0490870C1
:10260000E3480078002876D0E248007818B9E2481C
:102610000078002850D00020DE490870DE4908709C
:10262000DB490870DD4AD54B1B78D15CDC4A127857
:10263000C2EB4213C3EB02226432D04B1B781A4424
:1026400090B20AF0B1FCD74ACC4B1B7832F8132079
:1026500091B2D34A1278C2EB4213C3EB0222743216
:10266000C64B1B781A4490B20AF09EFCCE4AC34B6C
:102670001B7832F8132091B2C94A1278C2EB421388
:10268000C3EB02228432BD4B1B781A4490B20AF08D
:102690008BFCC64AB94B1B7832F8132091B2C04A62
:1026A0001278C2EB4213C3EB02229432B34B1B7875
:1026B0001A4490B20AF078FCBD48007800287DD01A
:1026C000AF480078012806D002281BD003283CD050
:1026D000042816D15CE0B148A8490978405C292853
:1026E0000ADAAE48A5490978405C401CAB49A34AC8
:1026F0001278885405E012E10020A8499F4A127818
:1027000088546AE0A7489D49097830F91100FA28F1
:102710000DDAA4489949097830F81100A4490978DC
:10272000084400B29F49954A127821F812009D484A
:102730009249097830F91100FA2805DDFA20994903
:102740008E4A127821F8120047E097488B490978A1
:1027500030F91100FA280DDA93488849097830F8E1
:10276000110093490978084400B28F49834A1278CE
:1027700021F812008C488149097830F91100FA28B3
:1027800005DDFA2088497D4A127821F8120024E0FC
:1027900086487A49097830F91100FA280DDA834819
:1027A0007649097830F8110081490978084401B266
:1027B0007E48724A127820F8121000E011E07B483F
:1027C0006E49097830F91100FA2805DDFA217748B9
:1027D0006A4A127820F8121000BF00BF0020744926
:1027E00008707448007800287ED065480078012879
:1027F00006D002281AD003283ED0042815D161E063
:1028000066485E490978405C50B164485B49097884
:10281000405C401EC1B26148584A1278815404E0BD
:1028200029215E48554A1278815473E05D48534926
:10283000097830F9110010F1FA0F0DDD59484F49B0
:10284000097830F811005B490978401A00B25549FF
:102850004A4A127821F8120052484849097830F95A
:10286000110010F1FA0F06DA6FF0F9014D48434AF2
:10287000127820F812104DE04B484049097830F9A1
:10288000110010F1FA0F0DDD47483C49097830F886
:10289000110048490978401A00B24349374A127872
:1028A00021F8120040483549097830F9110010F13B
:1028B000FA0F06DA6FF0F9003B49304A127821F836
:1028C000120027E039482D49097830F9110010F13C
:1028D000FA0F0FDD35482949097830F811003549DC
:1028E0000978401A00B200E092E03049234A127899
:1028F00021F812002D482149097830F9110010F112
:10290000FA0F06DA6FF0F90028491C4A127821F80C
:10291000120000BF00BF00202649087078E024485C
:102920000078E0B10020224908701448007828B1EE
:1029300012480078401E1149087005E00F200F4929
:1029400008700C200F4908700C4800780D49097870
:10295000884204DA0B480078401E0A49087015487E
:10296000007848B300201349087026E0CAFDBEDD98
:10297000000000004E000020F8010020F6010020B9
:10298000F7010020F501002046000020470000204C
:10299000F9010020480000204900002067000020C5
:1029A000E602002078000020C403002098000020E8
:1029B000440000204500002019E01B480078401C1E
:1029C0001949087008460078102804DB00200870B8
:1029D000164908700BE01448017814480078001D6F
:1029E000814204DB11480078401C104908701048EF
:1029F000007820B100200E4908700E4908700E487A
:102A0000007828B100200C49087001200B4908709B
:102A1000502020230090054802780421102006F061
:102A20007EFF06B010BD0000F6010020F501002079
:102A3000480000205500002049000020F901002036
:102A400000205EE0FA4A125C102A05DAF84A125CAD
:102A5000F84B33F8121031E0F54A125C202A06DAFE
:102A6000F34A125C103AF44B33F8121026E0F04AA5
:102A7000125C282A06DAEE4A125C203AEF4B33F851
:102A800012101BE0EA4A125C302A06DAE84A125CAD
:102A9000283AEB4B33F8121010E0E54A125C402A5A
:102AA00006DAE34A125C303AE64B33F8121005E0DE
:102AB000E54A125C482A01DA40F2DC5140F2DC526D
:102AC00091420DDBA1F2DC52E04B1B5C5A436423C4
:102AD00092FBF3F202F2DC52DD4B23F810200EE001
:102AE00040F2DC52521ADB4B1B5C5A43642392FBCC
:102AF000F3F240F2DC539A1AD54B23F81020421C13
:102B0000D0B210289EDB70472DE9F04186B0044614
:102B1000D1480678D1480778D14800782044C5B21A
:102B20004FF00108CF480078A8420DD1CE48007878
:102B300020B9CE480678C948077803E0C748067828
:102B4000C54807784FF00008092D47DAC8480078D3
:102B500008B9304601E0C0480078C549097809B98C
:102B6000394601E0BD490978C14A12780AB942469E
:102B700000E001220C23CDE90132CDE90310BDA014
:102B8000009004EB4400202202EB80011822002078
:102B900001F0E8FBB648007808B9304601E0AE48DD
:102BA0000078B349097809B9394601E0AB49097899
:102BB000AF4A12780AB9424600E001220C23CDE95F
:102BC0000032CDE902106A1C04EB4400202303EB21
:102BD00080010123122001F0B3F946E0A4480078F7
:102BE00008B9304601E09C480078A149097809B944
:102BF000394601E0994909789D4A12780AB9424656
:102C000000E001220C23CDE90132CDE903109AA0A6
:102C1000009004EB4400202202EB800118220020E7
:102C200001F0A0FB9248007808B9304601E08A48DC
:102C300000788F49097809B9394601E08749097850
:102C40008B4A12780AB9424600E001220C23CDE9F2
:102C50000032CDE902106A1C04EB4400202303EB90
:102C6000800102230C2001F06BF9814800780128D3
:102C700001D1314601E0784801787D48007801288B
:102C800001D1384601E075480078794A1278012A66
:102C900001D1424600E001220C23CDE90132CDE909
:102CA00003016348405D00EB8000744908440090D4
:102CB00004EB4400202202EB800118221B2001F0CB
:102CC00051FB6B480078022801D1304601E0624890
:102CD000007867490978022901D1394601E05F4946
:102CE0000978634A1278022A01D1424600E00122A3
:102CF0000C23CDE90032CDE902105648425D04EBC9
:102D00004400202303EB80010323392001F018F94C
:102D10005B48405D38BB56480078032801D13046F7
:102D200001E04D48007852490978032901D139461C
:102D300001E04A4909784E4A1278032A01D14246F5
:102D400000E001220C23CDE90132CDE903104DA0B2
:102D5000009004EB4400202202EB8001182257204F
:102D600001F000FB26E042480078032801D13046FC
:102D700001E0394800783E490978032901D13946F4
:102D800001E0364909783A4A1278032A01D14246CD
:102D900000E001220C23CDE90132CDE903103AA075
:102DA000009004EB4400202202EB800118225720FF
:102DB00001F0D8FA2E480078042801D1304601E00D
:102DC000254800782A490978042901D1394601E0CB
:102DD00022490978264A1278042A01D1424600E0A5
:102DE00001220C23CDE90032CDE902101748425DE3
:102DF00004EB4400202303EB800103236C2001F04B
:102E00009FF81B480078052801D1304601E01248A0
:102E1000007817490978052901D1394601E00F49A1
:102E20000978134A1278052A30D142462FE0000073
:102E3000F800002042020020B8000020F403002027
:102E4000C604002042040020670000200801002082
:102E5000D800002018010020580000205700002052
:102E6000F5010020F6010020F90100205A000020A1
:102E7000F70100204F5430004F5400003BE101089F
:102E8000E4030020D5FD0000B7B4000001220C23AC
:102E9000CDE90032CDE90210FE4830F8152004EBF0
:102EA0004400202303EB80010423872001F048F82D
:102EB00006B0BDE8F08110B586B0F7480078F74954
:102EC000097801220C23CDE90132CDE90310F4A0E9
:102ED000402204210090382001F044FAEE480078A6
:102EE000F249097801220C23CDE90132CDE9031022
:102EF000EFA0182214210090002001F033FAE648D8
:102F00000078EA49097801220C23CDE90132CDE9A4
:102F10000310E9A01822142100901B2001F022FACE
:102F2000DD480078E149097801220C23CDE901321E
:102F3000CDE90310E2A0182214210090362001F000
:102F400011FAD5480078D949097801220C23CDE936
:102F50000132CDE90310DCA0182214210090512089
:102F600001F000FACC480078D049097801220C23FE
:102F7000CDE90132CDE90310D5A01822142100902B
:102F80006C2001F0EFF9C4480078C84909780122A3
:102F90000C23CDE90132CDE90310CFA01822142172
:102FA0000090872001F0DEF9CD48007860B1002064
:102FB000CB4908700420CB4908700020CA4908702A
:102FC000CA490870CA490870002404E02046FFF787
:102FD0009BFD601CC4B2C34800788442F6DBC54840
:102FE000007870B10020C3490870C048007828B14B
:102FF000BE480078401EBD49087002E00520BB496C
:103000000870BD48007878B10020BB490870B74807
:103010000078052805DAB5480078401CB3490870E7
:1030200002E00020B1490870B4480078002872D04E
:10303000B3480078012803D0B248007801284AD16B
:103040000020AF490870AF490870AC490870AE4A1B
:10305000A54B1B78D15CAD4A1278C2EB4213C3EB8F
:103060000222B432A04B1B781A4490B209F09CFFA4
:10307000A74A9D4B1B78D15CA44A1278C2EB42133D
:10308000C3EB0222C432984B1B781A4490B209F069
:103090008BFFA04A944B1B78D15C9C4A1278C2EB00
:1030A0004213C3EB0222D4328F4B1B781A4490B2E6
:1030B00009F07AFF984A8C4B1B78D15C934A1278BE
:1030C000C2EB4213C3EB0222E432874B1B781A4453
:1030D00090B209F069FF9148007800286ED08348CB
:1030E0000078012806D002281CD0032837D00428F5
:1030F00060D141E084487C490978405C37280BDA8C
:10310000814879490978405C401CC1B27E48764AC2
:103110001278815405E00DE100207B49724A127853
:10312000885447E07A4870490978405C96280ADA62
:1031300077486D490978405C7849097808447449B2
:10314000694A12788854724867490978405C962821
:1031500004DD96216E48644A127881542AE06D4855
:1031600061490978405C08B9012000E00020694904
:103170005D4A127888541DE067485B490978405CD5
:1031800096280BDA644858490978405C6349097805
:103190000844C1B26048544A127881545E4852498A
:1031A0000978405C962804DD96205B494E4A1278E7
:1031B000885400BF00BF0020584908705848007864
:1031C000002865D049480078012806D002281AD086
:1031D000032835D0042815D13FE04B4842490978EF
:1031E000405C50B1484840490978405C401EC1B23B
:1031F00045483D4A1278815404E0372142483A4A12
:103200001278815491E0424837490978405C32286D
:103210000ADD3F4834490978405C41490978401A41
:103220003B49314A1278885439482F490978405C23
:10323000322804DA322036492B4A1278885474E056
:10324000344829490978405C08B9012000E0002091
:103250003049254A1278885467E02F482249097876
:10326000405C32280ADD2C481F490978405C2C4913
:103270000978401A28491C4A1278885426481A4965
:103280000978405C32284FDA32202349164A49E057
:10329000A3E00000D80000205800002057000020C4
:1032A000CDA8B5C0CAE4B3F6000000005900002064
:1032B000CDA8B5C000000000CAE4C8EB00000000C3
:1032C000B8BAB1C800000000D5FDB7B400000000D6
:1032D000D5FDB1C800000000CAFDBEDD0000000041
:1032E0004E000020F8010020F6010020F701002028
:1032F000F50100204600002047000020F9010020D1
:103300004800002049000020F8000020E6020020CC
:1033100018010020E40300200801002044000020E0
:10332000450000201278885400BF00BF00202C49BF
:10333000087052E02B480078E0B10020294908705D
:103340002948007828B128480078401E264908708E
:1033500005E00F20244908700C20244908702248F9
:10336000007822490978884204DA20480078401E13
:103370001E4908701A480078E0B10020184908700A
:1033800019480078401C1849087008460078102831
:1033900004DB00200870154908700BE01248017822
:1033A00012480078001D814204DB10480078401C60
:1033B0000E4908700E480078012804D100200C49FD
:1033C00008700C4908700C480078012805D10020CD
:1033D0000949087001200949087006B010BD0000B5
:1033E0004500002044000020F6010020F5010020E7
:1033F000480000205500002049000020F90100206D
:103400000146002900DA4942FE48814201DD0A20D6
:103410007047FD48814201DD0920F9E7FB48814200
:1034200001DD0820F4E7FA48814201DD0720EFE7DB
:10343000F848814201DD0620EAE742F20F7081423E
:1034400001DD0520E4E7B1F57A7F01DB0420DFE749
:10345000632901DD0320DBE7092901DD0220D7E72D
:103460000120D5E710B5EC494FF4485201E001F8CE
:10347000010B131EA2F10102F9D110BD10B50028F5
:1034800005DBA02803DA502901DA002900DA10BD93
:1034900001EB810300EB4313DF4CE25400BFF6E77E
:1034A00010B5002805DBA02803DA502901DA00292D
:1034B00000DA10BD01EB810300EB4313D64CE2545C
:1034C00000BFF6E710B504462146D44812F024FEAA
:1034D00010BD10B504462012FFF7F4FFE0B2FFF76D
:1034E000F1FF10BD70B500244FF448554F239F22C3
:1034F0000021084611F019FD4FF40071C84812F080
:1035000070FC00BF22E0C448005DC64A32F81000DB
:103510000112C24812F000FE00BF00BF00BF00BF92
:1035200000BF00BF00BF00BFBB48005DBD4A32F80E
:103530001010BA4812F0F0FD00BF00BF00BF00BF7E
:1035400000BF00BF00BF00BF601C84B2AC42DADB2A
:103550004FF40071B24812F042FC70BD2DE9F04703
:1035600004460D46904699460026002705EB0900C3
:10357000401E83B204EB0800401E82B2294620465A
:1035800011F0D3FC4FF40071A54812F02AFC2E462E
:1035900032E027462AE006EB860007EB40109E4A01
:1035A000105CA04A32F8100001129C4812F0B4FDE1
:1035B00000BF00BF00BF00BF00BF00BF00BF00BF13
:1035C00006EB860007EB4010934A105C954A32F8F0
:1035D0001010924812F0A0FD00BF00BF00BF00BF56
:1035E00000BF00BF00BF00BF781C87B204EB08001B
:1035F000B842D0DC701C86B205EB0900B042C8DCD2
:103600004FF40071864812F0EAFBBDE8F0872DE91F
:10361000F04706460F4690469946DDF820A03D4605
:103620000CE0344606E0524629B220B2FFF726FFEE
:10363000601C84B24445F6DD681C85B24D45F0DD62
:10364000BDE8F0872DE9F04381460C4615469846C3
:10365000281B002801DB014600E041420FB2002692
:10366000AC4202DD2546E01B04B2002607E0A019AB
:1036700001B242464846FFF701FF701C06B2BE4247
:10368000F5DDBDE8F0832DE9F04104460D4617460F
:1036900098460026AC4203DD20462C46054600BF76
:1036A000264606E0424639463046FFF7E7FE701CE4
:1036B00006B2AE42F6DBBDE8F0812DE9F0470646E2
:1036C0000F4690469A46002445460320A0EB480941
:1036D00052E03A1B11B2721B10B25246FFF7CEFEF7
:1036E0003A1B11B2721910B25246FFF7C7FE7A198F
:1036F00011B2321B10B25246FFF7C0FE3A1B11B294
:10370000721B10B25246FFF7B9FE7A1B11B2321B80
:1037100010B25246FFF7B2FE3A1911B2721910B246
:103720005246FFF7ABFE7A1B11B2321910B2524665
:10373000FFF7A4FE7A1911B2321910B25246FFF700
:103740009DFE3A1911B2721B10B25246FFF796FE57
:10375000641CB9F1000F03DAA000801D814404E06D
:10376000601B80000A3081446D1E7A1911B2321933
:1037700010B25246FFF782FEAC42AADDBDE8F087E8
:103780002DE9FF4F83B081464FF0000AD3460598DC
:10379000A0EB090504990698461ACDF80490049800
:1037A0000090002D01DD012705E00DB9002702E0A2
:1037B0004FF0FF376D42002E02DD4FF0010806E0AA
:1037C00016B94FF0000802E04FF0FF387642B542DC
:1037D00001DD2C4600E03446002002902DE00098E8
:1037E00001B2019800B2109AFFF748FEAA44B34410
:1037F000A24504DDAAEB040A019838440190A345D0
:1038000017DD11E0FFC99A3BFFE0F5057F969800B0
:103810003F420F009F860100D60400200038004080
:1038200000080140A4E20108ABEB040B00984044FF
:1038300000900298401C80B20290611C029888425D
:10384000CDDD07B0BDE8F08FF8B504460D4616464D
:103850001F46F8B2EBB204EB060CACF1010C0CF015
:10386000FF02E9B20090E0B2FFF7D1FEF8BD2DE90A
:10387000F04F0746884616469A4640F2C3207043EA
:103880004FF47A71B0FBF1F000F1010906FB06F08C
:1038900000EB560B344671040A0CB91B08B25346B0
:1038A0000FFA88F1FFF7D0FF012535E005FB05F0A1
:1038B00004FB040058451AD94C4517D96B1E5B040C
:1038C0001A0C08EB040319B27B1B5B1C18B253469D
:1038D000FFF7BAFF6B1E5B041A0CA8EB040319B2C6
:1038E0007B1B5B1C18B25346FFF7AEFF641E6304DC
:1038F0001A0C08EB050319B23B1B18B25346FFF72D
:10390000A3FF63041A0CA8EB050319B23B1B18B202
:103910005346FFF799FF6D1C4D45C7D9BDE8F08FA1
:103920002DE9F84104460D4616461F46DDF81C8079
:103930002BB232B229B220B2CDF80080FFF720FFBF
:103940003BB222B229B220B2CDF80080FFF718FFB7
:103950003BB232B239B220B2CDF80080FFF710FF8F
:103960003BB232B229B230B2CDF80080FFF708FF87
:10397000BDE8F8812DE9FF4F82B006460F469B4611
:10398000DDF840A00F990498401A00F0FF080F9846
:10399000ABEB000000F0FF0900240F9D03200F9DFA
:1039A000A0EB4500019078E007EB050CCC440FFA42
:1039B0008CF306EB040CC4440FFA8CF2A7EB050C55
:1039C000ACEB090C0FFA8CF106EB040CC4440FFAB3
:1039D0008CF0CDF800A0FFF7D3FE07EB040CCC442D
:1039E0000FFA8CF306EB050CC4440FFA8CF2A7EB2C
:1039F000040CACEB090C0FFA8CF106EB050CC4447B
:103A00000FFA8CF0CDF800A0FFF7BAFE07EB050C1B
:103A1000CC440FFA8CF3A6EB040CACEB080C0FFAB9
:103A20008CF2A7EB050CACEB090C0FFA8CF1A6EBB2
:103A3000040CACEB080C0FFA8CF0CDF800A0FFF7EB
:103A40009FFE07EB040CCC440FFA8CF3A6EB050C9D
:103A5000ACEB080C0FFA8CF2A7EB040CACEB090CE6
:103A60000FFA8CF1A6EB050CACEB080C0FFA8CF0FE
:103A7000CDF800A0FFF784FE641C0198002805DA49
:103A8000A000801D01990844019006E0601B8000A1
:103A90000A300199084401906D1EAC4284DD07EBA9
:103AA0000B0C0CF0FF0306EB080C0CF0FF02A7EB6D
:103AB0000B0C0CF0FF01A6EB080C0CF0FF00CDF88E
:103AC00000A0FFF7A4FD06B0BDE8F08F2DE9FF4F81
:103AD00082B004460D469346109E0F98ABEB000053
:103AE00000F0FF090F990598401A00F0FF0A00271F
:103AF000DDF83C800320DDF83C80A0EB480001901D
:103B00006AE0F2B2A5EB0803A3EB0A0319B2E319CA
:103B10004B4418B2FFF7B2FCF2B2EB1BA3EB0A0363
:103B200019B204EB08034B4418B2FFF7A7FCF2B23A
:103B3000EB19534419B204EB08034B4418B2FFF7D6
:103B40009DFCF2B205EB0803534419B2E3194B4450
:103B500018B2FFF793FCF2B205EB0803534419B215
:103B6000E31BA3EB090318B2FFF788FCF2B2EB19D1
:103B7000534419B2A4EB0803A3EB090318B2FFF7EF
:103B80007DFCF2B2A5EB0803A3EB0A0319B2E31B19
:103B9000A3EB090318B2FFF771FCF2B2EB1BA3EB26
:103BA0000A0319B2A4EB0803A3EB090318B2FFF749
:103BB00065FC7F1C0198002805DAB800801D01997A
:103BC0000844019008E0A7EB080080000A30019942
:103BD00008440190A8F10108474592DDF0B2009039
:103BE000DDF814C0A5EB0C0C0FFA8CF304EB090CF8
:103BF0000FFA8CF2DDF814C0A5EB0C0C0FFA8CF167
:103C0000A4EB090C0FFA8CF0FFF7BAFDF0B20090AC
:103C1000DDF814C0AC440FFA8CF304EB090C0FFA76
:103C20008CF2DDF814C0AC440FFA8CF1A4EB090C53
:103C30000FFA8CF0FFF7A4FDF0B205EB0A0C0FFAB7
:103C40008CF3A4EB0B0C0FFA8CF2A5EB0A0C0FFA19
:103C50008CF1A4EB0B0C00900FFA8CF0FFF790FDA9
:103C6000F0B205EB0A0C0FFA8CF304EB0B0C0FFA15
:103C70008CF2A5EB0A0C0FFA8CF104EB0B0C009004
:103C80000FFA8CF0FFF77CFD06B0BDE8F08F2DE950
:103C9000F84F8046894615469A46DDF828B000263A
:103CA00037E000242DE09BF800000090002722E080
:103CB000009800F0800058B10C9BDAB209EB0603C3
:103CC00019B208EBC4033B4418B2FFF7D7FB0CE072
:103CD0000B9850B90D9BDAB209EB060319B208EB49
:103CE000C4033B4418B2FFF7C9FB00984006000E1E
:103CF0000090781C87B2082FDADB0BF1010B601CF7
:103D000084B2E91705EB5171B4EBE10FCBDB701C0A
:103D100086B25645C5DBBDE8F88F2DE9FC4F074656
:103D20008B4690461D4607F0FF09284605EBD071EB
:103D3000C1F347042046E21704EB5272D210214629
:103D4000E31704EB5373DB10A4EBC3030BB10123A4
:103D500000E000231A446A4392B20192A8F12000C5
:103D600000F0FF08002668E00C2D07D108EB4800A2
:103D7000F94901EB8000805D00901BE0102D05D11A
:103D8000F64800EB0810805D009013E0182D07D175
:103D900008EB4800F24901EB0010805D009009E05B
:103DA000202D05D1EF4800EB8810805D009001E0E8
:103DB000BDE8FC8F4FF0000A39E00B98E0B9012014
:103DC00000FA0AF00099084028B1594638460C9A82
:103DD000FFF754FB04E0594638460D9AFFF74EFBB7
:103DE000781C07B2A7EB0900A0421CD14F460BF18B
:103DF00001000FFA80FB1DE0012000FA0AF0009993
:103E0000084020B1594638460C9AFFF737FB781C1A
:103E100007B2A7EB0900A04205D14F460BF1010004
:103E20000FFA80FB06E00AF1010000F0FF0ABAF188
:103E3000080FC2DB00BF701C86B20198864293DB7C
:103E400000BFB5E72DE9FE4705460E4617461C465E
:103E5000DDE90C9ADDF82C802046E11704EB917126
:103E6000A5EBA1010DB204EBD071A6EB61010EB27E
:103E700023463A46314628468DE80007FFF74DFFB6
:103E8000BDE8FE8710B50246012000E050430B1E3E
:103E9000A1F10104E1B2F9D110BD2DE9F04F85B0D7
:103EA0000746884692461E46DDE90E5B00200490D8
:103EB000002440E0301B401EC1B20A20FFF7E2FFA1
:103EC000BAFBF0F00A21B0FBF1F201FB12090498F1
:103ED000D0B9701EA04217DDB9F1000F12D1DDE993
:103EE0001010CDE900B1CDE9020505EBD5714910FF
:103EF00001FB047108B22B4630220FFA88F1FFF75C
:103F00000CFF16E001200490DDE91001CDE900B0BE
:103F1000CDE9021505EBD571491001FB047108B21A
:103F200009F13001CAB22B460FFA88F1FFF7F5FE0E
:103F300000BF601CC4B2B442BCDB05B0BDE8F08F6A
:103F40002DE9F04F86B00746884692461E46DDE9C9
:103F50000F5B0020059001200490BAF1000F45DBB3
:103F6000002440E0301B401EC1B20A20FFF78AFF48
:103F7000BAFBF0F00A21B0FBF1F201FB120905983F
:103F8000D0B9701EA04217DDB9F1000F12D1DDE9E2
:103F90001110CDE900B1CDE9020505EBD57149104D
:103FA00001FB047108B22B4620220FFA88F1FFF7BB
:103FB000B4FE16E001200590DDE91101CDE900B065
:103FC000CDE9021505EBD571491001FB047108B26A
:103FD00009F13001CAB22B460FFA88F1FFF79DFEB6
:103FE00000BF601CC4B2B442BCDB63E0CAF1000A8B
:103FF00000245DE0301B401EC1B20A20FFF742FFE3
:10400000BAFBF0F00A21B0FBF1F201FB12090598AE
:10401000D8B9701EA04218DDB9F1000F13D1DDE947
:104020001110CDE900B1CDE9020505EBD5714A10BB
:10403000711E02FB017108B22B4620220FFA88F193
:10404000FFF76BFE32E0012005900498C8B1002014
:104050000490DDE91110CDE900B1CDE9020505EBD1
:10406000D571491001FB047108B22B462D220FFABD
:1040700088F1FFF752FE284605EBD07107EB61018E
:104080008FB2DDE91101CDE900B0CDE9021505EBF4
:10409000D571491001FB047108B209F13001CAB2AF
:1040A0002B460FFA88F1FFF738FE00BF601CC4B240
:1040B000B4429FDB06B0BDE8F08F2DE9FC4F05460A
:1040C000894617469A46AB46182000909B200190DF
:1040D00000245BE004EB840000EBC400224911F8EB
:1040E0001000397888424FD104EB840000EBC40003
:1040F0001D4901EB400040787978884244D1002680
:104100003EE04FF0000835E004EB840000EBC40013
:10411000154901EB4000801C805D012101FA08F186
:10412000084028B1494628460B9AFFF7A7F907E04F
:10413000BAF1000F04D1494628460C9AFFF79EF9C0
:10414000681C05B2A5EB0B000C280FD15D4609F1E8
:1041500001000FFA80F910E02CE50108A0E9010840
:1041600090EF0108600102082019020808F101001F
:1041700000F0FF08B8F1080FC6DB00BF701CC6B224
:1041800000988642BDDB04E0601C84B20198844242
:10419000A0DB00BFBDE8FC8F2DE9FC4F054689463A
:1041A00017469A46AB462020009014200190002428
:1041B0004BE004EB0410FE4911F8100039788842F6
:1041C00041D104EB0410FA4901EB400040787978C2
:1041D000884238D1002632E04FF0000829E004EB95
:1041E0000410F34901EB4000801C805D012101FABD
:1041F00008F1084028B1494628460B9AFFF73EF9D6
:1042000007E0BAF1000F04D1494628460C9AFFF79F
:1042100035F9681C05B2A5EB0B00102805D15D46E9
:1042200009F101000FFA80F906E008F1010000F041
:10423000FF08B8F1080FD2DB00BF701CC6B20098AF
:104240008642C9DB04E0601C84B201988442B0DB82
:1042500000BFBDE8FC8F2DE9FC4F05468946174697
:104260009A46AB464820009001200190002448E087
:1042700004EB4400CF49085C397888423FD104EB15
:104280004400CC49084440787978884237D10026E8
:1042900031E04FF0000828E004EB4400C549084431
:1042A000801C805D012101FA08F1084028B14946CF
:1042B00028460B9AFFF7E2F807E0BAF1000F04D1A5
:1042C000494628460C9AFFF7D9F8681C05B2A5EBB9
:1042D0000B00182805D15D4609F101000FFA80F99D
:1042E00006E008F1010000F0FF08B8F1080FD3DB89
:1042F00000BF701CC6B200988642CADB04E0601C96
:1043000084B201988442B3DB00BFBDE8FC8F2DE985
:10431000FC470746884691461C46DDE90AA50C9EE7
:104320000C2C08D153464A4641463846CDE9005642
:10433000FFF7C3FE14E0102C08D153464A4641460D
:104340003846CDE90056FFF727FF09E0182C07D1C2
:1043500053464A4641463846CDE90056FFF77BFFB3
:10436000BDE8FC872DE9F04F85B007460E46914623
:104370009A46DDE90F4B0E9DB84604960020039047
:1043800052E0039888BB2878802802DD0120039042
:104390004AE004EBD47108EB0902A2EB6101B942D7
:1043A00002DA301906B2474604985044001BB04266
:1043B00000DA3CE028780D2804D1301906B24746CF
:1043C0006D1C0AE0DDE91110CDE900B102902A78F8
:1043D000234631463846FFF7A0FC6D1C204604EB0F
:1043E000D07107EB61010FB21EE0FFE700200390E0
:1043F00008EB0900001BB84202DA301906B2474642
:1044000004985044001BB04200DA10E0DDE91110BE
:1044100023462A46CDE900B1029031463846FFF7DF
:1044200076FFAD1C381907B228780028A9D100BF43
:1044300005B0BDE8F08F10B55F4BB3F9003098427E
:1044400004DD5E4BB3F90030984200DB10BD5C4BDD
:10445000B3F90030994204DD5A4BB3F90030994268
:1044600000DBF3E7584B1B780344D8B2574B1B785B
:104470000B44D9B2502901DAA02800DBE6E701EBB2
:10448000810300EB4313524CE25400BFDEE72DE9F9
:10449000FF4F84B081468A460020029083460698EA
:1044A000A0EB09050798A0EB0A06CDF80490CDF81B
:1044B00000A0002D01DD012705E00DB9002702E075
:1044C0004FF0FF376D42002E02DD4FF0010806E08D
:1044D00016B94FF0000802E04FF0FF387642B542BF
:1044E00001DD2C4600E03446002003901EE0009AD7
:1044F000D1B2019AD0B2119AFFF79DFF02982844D9
:104500000290B3440298A04205DD0298001B02907D
:10451000019838440190A34504DDABEB040B0098EF
:10452000404400900398401C80B20390611C0398A3
:104530008842DCDD08B0BDE8F08F2DE9FF4FBDB04B
:104540000C4615461E463D9817F03DF8CDE9020190
:1045500019F042FCCDE9040117F048F80B903D98A2
:1045600017F031F8CDE9020119F0E8FBCDE90401BB
:1045700017F03CF80A90204617F025F8CDE9020123
:1045800019F02AFCCDE9040117F030F80990204613
:1045900017F019F8CDE9020119F0D0FBCDE90401BB
:1045A00017F024F80890284617F00DF812E00000E4
:1045B000DE280208862B0208060300200A030020DA
:1045C000080300200C030020FA010020FC01002059
:1045D000D6040020CDE9020119F0FEFBCDE904016B
:1045E00017F004F80790284616F0EDFFCDE9020118
:1045F00019F0A4FBCDE9040116F0F8FF06900020A5
:10460000FE490870B8E0FE49FC4A1278885616F058
:1046100049FF0E90FB49F94A1278885616F042FF7E
:104620000D90F949F54A1278885616F03BFF0C9028
:10463000DDE90B1016F03EFD05900A990D9816F075
:1046400039FD0490059916F02FFD10900A990C98E9
:1046500016F030FD05900B990D9816F02BFD049087
:10466000059916F0CFFC0F9010980D900F980C90B4
:1046700009990C9816F01EFD059008990E9816F0F1
:1046800019FD0490059916F00FFD834608990C98C2
:1046900016F010FD059009990E9816F00BFD049088
:1046A000059916F0AFFC0F90CDF838B00F980C902C
:1046B00007990D9816F0FEFC059006990E9816F0D5
:1046C000F9FC0490059916F0EFFC834606990D98C5
:1046D00016F0F0FC059007990E9816F0EBFC04908C
:1046E000059916F08FFC1090CDF838B010980D9009
:1046F000C6490C9816F086FC0C90C548B0F900002D
:1047000016F0D0FE0490304616F0D5FE01900E99BA
:1047100016F0D0FC02900C9916F0FEFC0390049960
:1047200016F070FC059016F002FF27A9B34A127824
:1047300021F81200B748B0F9000016F0B3FE04905B
:10474000304616F0B8FE01900D9916F0B3FC0290B9
:104750000C9916F0E1FC0390049916F053FC0590B7
:1047600016F0E5FE11A9A54A127821F81200A34817
:104770000078401CA1490870A04800782C28FFF65A
:1047800042AF00209D4908702FE0A3489B4909785B
:10479000405C401E27A931F810709F48974909785E
:1047A000405C401E11A931F810809C48934909785B
:1047B000405C401E27A931F8109098488F4909782D
:1047C000405C401E11A931F810A04A980AF0FF037E
:1047D00009F0FF0208F0FF010090F8B2FFF757FE62
:1047E00086480078401C85490870844800782C2849
:1047F000CBDB41B0BDE8F08F2DE9F04F07460C460A
:1048000015469846DDF824B004F1080004B2A5F17D
:104810002000C5B200262EE005EB4500804901EBE3
:10482000400010F806904FF0000A1AE009F08000EE
:1048300028B15A4621463846FEF720FE07E0B8F177
:10484000000F04D1214638460A9AFEF717FE601E73
:1048500004B24FEA49604FEA10690AF1010000F022
:10486000FF0ABAF1080FE1DB04F1080004B2781C7A
:1048700007B2701CC6B2062ECEDBBDE8F08F2DE964
:10488000FF4F82B0054616461F46DDE910894FF0FE
:10489000000B002E0CDA764209F0FF00CDE9008013
:1048A0002D2228460F9B0399FFF7A6FFA81D05B2EE
:1048B000002435E0381B401EC1B20A20FFF7E2FA9F
:1048C000B6FBF0F00A21B0FBF1F201FB120ABBF1DA
:1048D000000F14D1781EA04211DDBAF1000F0CD1E7
:1048E00009F0FF00CDE90080202228460F9B0399A4
:1048F000FFF782FFA81D05B210E04FF0010B09F091
:10490000FF00CDE900800AF13000C2B228460F9BBB
:104910000399FFF771FFA81D05B200BF601CC4B268
:10492000BC42C7DB06B0BDE8F08F2DE9F04F8046F2
:104930000C4615469946002704F1080004B23AE0F7
:10494000002634E0E85D203800EB4000344901EBFC
:10495000400010F806B04FF0000A1CE00BF0800099
:1049600030B10998C2B221464046FEF787FD08E003
:10497000B9F1000F05D10A98C2B221464046FEF7B0
:104980007DFD601E04B24FEA4B604FEA106B0AF1E6
:10499000010000F0FF0ABAF1080FDFDB04F10800A4
:1049A00004B208F101000FFA80F8701CC6B2062E9E
:1049B000C8DB781CC7B2E85D0028C1D1BDE8F08F24
:1049C0002DE9FE4F05460E4693469A46DDE90D89D0
:1049D000002002900024B8E0AAEB0400401EC1B2FF
:1049E0001020FFF74FFABBFBF0F000F00F07029822
:1049F00058BBAAF10100A04227DD13E0FE01002010
:104A00008C2B0208B82B0208E42B02080000F041AE
:104A10000203002004030020102C02083C2C020892
:104A2000682C02087FB909F0FF0008F0FF01CDE90A
:104A30000010062101FB045108B2302231B20C9B58
:104A4000FFF7DAFE7FE0012002900A2F0FD109F074
:104A5000FF0008F0FF01CDE90010062101FB045121
:104A600008B2412231B20C9BFFF7C6FE6AE00B2F61
:104A70000FD109F0FF0008F0FF01CDE90010062179
:104A800001FB045108B2422231B20C9BFFF7B4FE85
:104A900058E00C2F0FD109F0FF0008F0FF01CDE91D
:104AA0000010062101FB045108B2432231B20C9BD5
:104AB000FFF7A2FE46E00D2F0FD109F0FF0008F02E
:104AC000FF01CDE90010062101FB045108B2442288
:104AD00031B20C9BFFF790FE34E00E2F0FD109F09E
:104AE000FF0008F0FF01CDE90010062101FB045191
:104AF00008B2452231B20C9BFFF77EFE22E00F2F59
:104B00000FD109F0FF0008F0FF01CDE900100621E8
:104B100001FB045108B2462231B20C9BFFF76CFE38
:104B200010E009F0FF0008F0FF01CDE9001007F1E7
:104B30003001CAB2062101FB045108B231B20C9B0C
:104B4000FFF75AFE00BF601CC4B25445FFF644AFE5
:104B5000BDE8FE8F2DE9F04706460F4614461D4678
:104B6000DDF820A0681E83B2601E82B2394630464E
:104B700010F0DBF9B8460EE0B14606E0504610F002
:104B8000BBF909F101001FFA80F9A145F6DB08F134
:104B900001001FFA80F8A845EEDBBDE8F0870000B1
:104BA000002004E00021584A1154411CC8B20D28CD
:104BB000F8DB00200DE0554A32F81020A2F57A719A
:104BC000CA1701EB9272C2F387024F4B1A54411C71
:104BD000C8B20828EFDB4D49098840F2D6629142FD
:104BE00003DC4A494988914202DD0021464A11729C
:104BF0004649098840F2E242914205DB434949882F
:104C000040F2D662914202DD00213F4A11723F49D3
:104C1000098840F2D662914203DC3C4949889142BE
:104C200002DD0021384A11723849098840F2D66203
:104C3000914203DC35494988914202DD0021324A24
:104C40001172002011E000F10801304A32F8111011
:104C500040F2D662914206DD2B49497A0122824018
:104C60001143294A5172411CC8B20828EBDB0020CD
:104C700012E000F11001254A32F8111040F2D6621C
:104C8000914207DD20498A7A012181400A43D1B24D
:104C90001D4A9172411CC8B20828EADB002011E0CD
:104CA00000F11801194A32F8111040F2D66291420F
:104CB00006DD1549C97A012282401143124AD17298
:104CC000411CC8B20828EBDB002010E00F4931F886
:104CD000101040F2D662914207DD0B490A7B012198
:104CE00081400A43D1B2084A1173411CC8B2082856
:104CF000ECDB704710B5FFF753FF0D22024981200E
:104D000015F086FC10BD0000D6360020D80000202B
:104D10007FB505460E46144684B9FE480078FE4924
:104D200009780122FD4BCDE90032CDE902100823BC
:104D30001A4631462846FEF7AAFF24E0012C10D17E
:104D4000F4480078F44909780122F54BCDE90032A6
:104D5000CDE9021008231A4631462846FEF797FF90
:104D600011E0022C0FD1EB480078EB4909780122C1
:104D7000EC4BCDE90032CDE9021008231A4631464A
:104D80002846FEF784FF7FBDF0B587B0E64800787F
:104D9000012808DCE548007813239F2200210090B9
:104DA0000846FEF734FCE1480078DB490978012227
:104DB000DF4BCDE90032CDE9021010231A46022163
:104DC0000846FEF764FF0024DA48008840F6AC513C
:104DD000884213DDD748008841F2680188420DDA25
:104DE000D4480088A0F6AC5000EB4001C1EB401065
:104DF0004FF42F7190FBF1F0C4B229E0CD48008848
:104E000041F29411884207DDCA48008841F27C5182
:104E1000884201DA1D241BE0C648008841F658315B
:104E2000884214DDC348008842F2D00188420EDA7D
:104E3000C0480088A0F5D850583800EB4001C1EBBD
:104E400040104FF4AF6190FBF1F0C4B200E01D24BC
:104E5000B9480078009004F17F00C2B20F2304210A
:104E60007F20FEF7D4FBB1480078AB4909780122D6
:104E7000B24BCDE90032CDE90210102320220221ED
:104E80007E20FEF704FFAB48008816F014FB0746AF
:104E9000AB4916F041F9044616F095FB05462A4643
:104EA0000B46A8A105A817F089FAA04800789A49EE
:104EB00009780A220C23CDE90132CDE9031005A8B7
:104EC0001822042100908020FFF74CFA9F480078B8
:104ED00088B1964800789049097801220C23CDE9E1
:104EE0000032CDE9021003239848027804211220F1
:104EF000FFF726F810E08D480078874909780A22E4
:104F00000C23CDE90132CDE9031091A01822042130
:104F100000901220FFF726FA844800787E4909782D
:104F200001220C23CDE90032CDE902100223894889
:104F3000027804217220FFF703F807B0F0BD2DE9D5
:104F4000F04F87B04FF00008FFF71EFF824815F0C2
:104F50007CFE00F0FF08B8F1080F13DC6D48007804
:104F60006D49097801221023CDE90132CDE9031002
:104F7000794850210090A1EB880040220221FFF7E0
:104F8000F1F927E06348007863490978012210238A
:104F9000CDE90132CDE903106F4870490978084422
:104FA0004022022100903020FFF7DCF96C480078A5
:104FB00038B100206A49087068480078401C674989
:104FC0000870A8F1080065490978884202DA0020D3
:104FD000624908706348B0F9000000EB800080006F
:104FE000FA2190FBF1F02130C4B25E48B0F9020022
:104FF000404200EB8000800090FBF1F02F30C5B202
:105000005848B0F90400404200EB8000800090FB5B
:10501000F1F02F30C6B25348B0F9060000EB800023
:10502000800090FBF1F07F30C7B23B480078462308
:105030000522182100901046FEF7A2FB36480078A2
:1050400046239B22182100901046FEF799FB324818
:1050500000784B233822194600900A20FEF790FB77
:105060002D4800784B239622194600906820FEF7C1
:1050700087FB28480078022103231A46CDE9001057
:1050800029460520FEF776FC2248007802210323FA
:105090001A46CDE9001031469B20FEF76BFC1E48F6
:1050A0000078022103231A46CDE900102946052085
:1050B000FEF70CFD18480078022103231A46CDE9BB
:1050C000001031469B20FEF701FD134800786B1E4F
:1050D000691E062200900420FEF752FB0E4800785D
:1050E0006B1C0622691C00900420FEF749FB0A484D
:1050F0000078731E711E9C2200909A20FEF740FBE0
:1051000005480078731C9C22711C00909A20FEF7C1
:1051100037FB29E05800002057000020A22E02088B
:10512000AA2E0208B22E02085F00002059000020BB
:10513000D1330208100000205A00002091330208E9
:1051400000007A4425322E32660000004A01002019
:105150004E4300004C0000200002002010020020FE
:1051600000000020C4030020FD4800780221032332
:105170001A46CDE900104B212046FEF7FBFBF8480C
:105180000078022103231A46CDE900104B2138464E
:10519000FEF7F0FBF3480078022103231A46CDE91D
:1051A00000104B212046FEF791FCEE4800780221CA
:1051B00003231A46CDE900104B213846FEF786FC42
:1051C000E8480078621E0090601E4C234A21FEF7DA
:1051D000D7FAE44800784C23621C4A210090601CF6
:1051E000FEF7CEFADF4800787A1E0090781E4C2336
:1051F0004A21FEF7C5FADB4800784C237A1C4A2185
:105200000090781CFEF7BCFAD64800784623382276
:10521000182100900A20FEF783FBD248007846232D
:105220009622182100906820FEF77AFBCE4800787D
:105230002F232322194600901F20FEF7A1FACA4807
:105240000078312321222D2100901046FEF798FA94
:10525000C54800782F238122194600907D20FEF753
:105260008FFAC148007831237F222D21009010460B
:10527000FEF786FABD48C088A0F2DC5000EB800043
:1052800080004FF4FA7190FBF1F0213000F0FF093B
:10529000B6488088A0F2DC5000EB8000800090FBD4
:1052A000F1F02F3000F0FF0AB0480088A0F2DC5087
:1052B00000EB8000800090FBF1F07F3000F0FF0BEE
:1052C000AA484088A0F2DC5000EB8000800090FBF0
:1052D000F1F02F30C0B20690A24803780422514664
:1052E0004846FEF7EAF99F48037804225846069993
:1052F000FEF7E3F99B4800784623422218210090EC
:105300003C20FEF70DFB97480078462364221821C5
:1053100000905E20FEF704FB9148007891490978DF
:10532000012393A2CDE9001048213A20FFF7FDFAAE
:105330008B4800788B49097801238EA2CDE90010B3
:1053400048215B20FFF7F1FA88480089C0F5FA6030
:105350002C2148434FF47A7190FBF1F01930C0B220
:105360000590814800784523412200903D20059911
:10537000FEF74DF97D484089C0F5FA602C2148437D
:105380004FF47A7190FBF1F01930C0B20590764875
:1053900000784523632200905F200599FEF737F9D6
:1053A0006F4800786F490978012373A2CDE9001096
:1053B00018214620FFF7B9FA694800786949097849
:1053C00001236EA2CDE9001024214620FFF7ADFA9B
:1053D0006348007863490978012369A2CDE9001088
:1053E00030214620FFF7A1FA5D4800785D49097831
:1053F000012364A2CDE900103C214620FFF795FA75
:105400005A48808940F2E241884201DA002008E0EF
:105410005648808940F2D661884201DA012000E0D6
:105420000220024618215320FFF772FC4F48C08922
:1054300040F2E241884201DA002008E04B48C0898E
:1054400040F2D661884201DA012000E002200246E3
:1054500024215320FFF75CFC4448008A40F2E241DB
:10546000884201DA002008E04048008A40F2D66114
:10547000884201DA012000E0022002463021532058
:10548000FFF746FC3948408A40F2E241884201DA9F
:10549000002008E03548408A40F2D661884201DAAF
:1054A000012000E0022002463C215320FFF730FC9F
:1054B00007B0BDE8F08F2DE9F04188B032480078A0
:1054C0000F239F22002100900846FEF7A0F82E48E7
:1054D00000782449097801222C4BCDE90032CDE92E
:1054E000021010231A4600210220FEF7D0FB2848A4
:1054F000008815F0E0FF8046264915F00DFE0546B0
:1055000016F061F8064632460B4623A106A816F0AF
:1055100055FF1D480078134909780A220C23CDE96C
:105520000132CDE9031006A818220121009086203F
:10553000FEF718FF1A48007888B113480078094927
:10554000097801220C23CDE90032CDE902100323B2
:105550001348027801211220FEF7F2FC34E021E02A
:1055600058000020570000205A000020D8000020DA
:1055700053310000533200005341000053420000F9
:10558000534300005344000059000020D133020867
:105590001000002000007A4425322E3166560000AB
:1055A0004A010020FE480078FE4909780A220C23AF
:1055B000CDE90132CDE90310AFF26C40182202218F
:1055C00000901220FEF7CEFEF5480078F5490978E4
:1055D00001220C23CDE90032CDE902100223F2486A
:1055E000027801217220FEF7ABFCF0480078ED490B
:1055F000097801220C23CDE90132CDE90310ECA09A
:105600003022022100903820FEF7ACFEE7480078F7
:10561000E44909780023E9A2CDE900101021012016
:10562000FFF783F9E1480078DE4909780023E4A216
:10563000CDE9001018210120FFF777F9DB48007849
:10564000D84909780023DFA2CDE9001020210120EC
:10565000FFF76BF9D5480078D24909780023DAA220
:10566000CDE9001028210120FFF75FF9CF4800782D
:10567000CC4909780023D5A2CDE9001030210120C2
:10568000FFF753F9C9480078C64909780023D0A22A
:10569000CDE9001038210120FFF747F9C348007811
:1056A000C04909780023CBA2CDE900104021012098
:1056B000FFF73BF9BD480078BA4909780023C6A234
:1056C000CDE9001048210120FFF72FF9B7480078F5
:1056D000B44909780023C1A2CDE90010102151205E
:1056E000FFF723F9B1480078AE4909780023BCA23E
:1056F000CDE9001018215120FFF717F9AB480078C9
:10570000A84909780023B7A2CDE900102021512033
:10571000FFF70BF9A5480078A24909780023B2A247
:10572000CDE9001028215120FFF7FFF89F480078AD
:105730009C4909780023ADA2CDE900103021512009
:10574000FFF7F3F899480078964909780023A8A252
:10575000CDE9001038215120FFF7E7F89348007891
:10576000904909780023A3A2CDE9001040215120DF
:10577000FFF7DBF88D4800788A49097800239EA25C
:10578000CDE9001048215120FFF7CFF800245BE05D
:10579000844800780090112000EBC400831D112084
:1057A00000EBC4014E221420FEF7BAF87D480078C1
:1057B0000090112000EBC400831D112000EBC401F8
:1057C0009E226420FEF7ACF88C4830F81400A0F557
:1057D0007A703A2148434FF47A7190FBF1F014301B
:1057E000C5B2704800780090112000EBC400401D45
:1057F000C3B2112000EBC400401CC1B22A461420E1
:10580000FDF705FF7D4904F1080031F81000A0F50F
:105810007A703A2148434FF47A7190FBF1F064308A
:10582000C5B2604800780090112000EBC400401D14
:10583000C3B2112000EBC400401CC1B22A46642050
:10584000FDF7E5FE601CC4B2082CA1DB08B0BDE882
:10585000F08100B585B0FFF797FA544800785149B8
:10586000097801221023CDE90132CDE9031064A0AB
:105870004022022100903420FEF774FD6248007837
:1058800000287DD0494800786049097801220C231E
:10589000CDE90132CDE903105DA06422162100900C
:1058A0000120FEF75FFD4148007858490978012240
:1058B0000C23CDE90132CDE9031057A06422252144
:1058C00000900120FEF74EFD384800784F490978D6
:1058D00001220C23CDE90132CDE9031050A064224E
:1058E000342100900120FEF73DFD30480078474903
:1058F000097801220C23CDE90132CDE903104AA039
:105900006422432100900120FEF72CFD27480078F7
:105910003E49097801220C23CDE90132CDE903107B
:1059200043A06422162100905120FEF71BFD1F4862
:1059300000783649097801220C23CDE90132CDE9FE
:1059400003103DA06422252100905120FEF70AFD9E
:10595000164800782D49097801220C23CDE901323F
:10596000CDE9031036A06422342100905120FEF7C7
:10597000F9FC0E4800782549097801220C2300E043
:10598000ECE0CDE90132CDE903102FA064224321E0
:1059900000905120FEF7E6FC01480078014957E0ED
:1059A00059000020570000204C0000205800002023
:1059B000CDA8B5C0CAFDBEDD0000000043483100DF
:1059C00043483200434833004348340043483500DD
:1059D00043483600434837004348380043483900BD
:1059E0004331300043313100433132004331330021
:1059F000433134004331350043313600D8000020B4
:105A000050504DCAE4C8EB00F00100205B000020BC
:105A100050504D313A00000050504D323A000000D5
:105A200050504D333A00000050504D343A000000C1
:105A300050504D353A00000050504D363A000000AD
:105A400050504D373A00000050504D383A00000099
:105A5000097801220C23CDE90032CDE90210FE487D
:105A60000288042316211E20FEF76AFAFB480078FC
:105A7000FB49097801220C23CDE90032CDE902105F
:105A8000F5484288042325211E20FEF759FAF348E1
:105A90000078F349097801220C23CDE90032CDE9E1
:105AA0000210ED488288042334211E20FEF748FAB4
:105AB000EA480078EA49097801220C23CDE900324E
:105AC000CDE90210E448C288042343211E20FEF7DA
:105AD00037FAE2480078E249097801220C23CDE93F
